:100000000C942A000C9447000C9447000C94470071
:100010000C9447000C9447000C9447000C94470044
:100020000C9447000C9447000C94E0030C94B90323
:100030000C9447000C9447000C9447000C94470024
:100040000C9447000C9447000C9447000C94470014
:100050000C94470011241FBECFE5D8E0DEBFCDBF12
:1000600010E0A0E6B0E0E6EAF8E002C005900D92EC
:10007000AA36B107D9F720E0AAE6B0E001C01D9288
:10008000A837B207E1F70E9437030C9451040C948F
:10009000000080EF87BB8FE088BB0895C498C59AA5
:1000A000C69AC79AB09B44C0B19B44C0B29B44C09F
:1000B000B39B44C08FE99FE00197F1F700C00000B7
:1000C000C49AC598C69AC79AB09B3AC0B19B3AC029
:1000D000B29B3AC0B39B3AC08FE99FE00197F1F71A
:1000E00000C00000C49AC59AC698C79AB09B30C099
:1000F000B19B30C0B29B30C0B39B30C08FE99FE052
:100100000197F1F700C00000C49AC59AC69AC79833
:10011000B09B26C0B19B26C0B29B26C0B39B26C015
:100120008FE99FE00197F1F700C0000080E008959B
:1001300087E3089584E3089581E3089583E60895AD
:1001400088E3089585E3089582E3089580E30895A0
:1001500089E3089586E3089583E308958DE3089580
:100160008CE508958AE208958DE208958BE2089562
:10017000DB98882314F4DF9A01C0DF9886FF02C061
:10018000DE9A01C0DE9885FF02C0DD9A01C0DD98CD
:1001900084FF02C0DC9A01C0DC98DA9AEFE9FFE044
:1001A0003197F1F700C00000DA98EFE9FFE03197EE
:1001B000F1F700C0000083FF02C0DF9A01C0DF98A2
:1001C00082FF02C0DE9A01C0DE9881FF02C0DD9A84
:1001D00001C0DD9880FF02C0DC9A01C0DC98DA9A89
:1001E0008FE99FE00197F1F700C00000DA98EFE98E
:1001F000FFE03197F1F700C0000008958AB38C6FDB
:100200008ABB83E00E94B8008FE79EE30197F1F775
:1002100000C0000083E00E94B8008FE79EE30197D2
:10022000F1F700C0000083E00E94B8008FE79EE372
:100230000197F1F700C0000082E00E94B80088E258
:100240000E94B80088E00E94B80081E00E94B800D7
:1002500086E00E94B8008CE00E94B8009FEF29EF72
:1002600080E0915020408040E1F700C000000895F8
:10027000DB9A882314F4DF9A01C0DF9886FF02C05E
:10028000DE9A01C0DE9885FF02C0DD9A01C0DD98CC
:1002900084FF02C0DC9A01C0DC98DA9AEFE9FFE043
:1002A0003197F1F700C00000DA98EFE9FFE03197ED
:1002B000F1F700C0000083FF02C0DF9A01C0DF98A1
:1002C00082FF02C0DE9A01C0DE9881FF02C0DD9A83
:1002D00001C0DD9880FF02C0DC9A01C0DC98DA9A88
:1002E0008FE99FE00197F1F700C00000DA98EFE98D
:1002F000FFE03197F1F700C0000008958F929F92C0
:10030000AF92BF92EF92FF921F93CF93DF93CDB73F
:10031000DEB72A970FB6F894DEBF0FBECDBF6115CA
:1003200071058105910521F480E30E94380134C0F4
:1003300010E00F2EFAE08F2E912CA12CB12CF02D75
:1003400001C0122FEE24E394F12CEC0EFD1EE10E01
:10035000F11C17FDFA94A50194010E941B04605D35
:10036000F7016083622F732F842F952F21E0210FD7
:10037000611571058105910521F711236CF0E1E00C
:10038000F0E0EC0FFD1FE10FF11D17FDFA958081E4
:100390000E94380111509AF72A960FB6F894DEBFE2
:1003A0000FBECDBFDF91CF911F91FF90EF90BF9017
:1003B000AF909F908F90089580917300811119C024
:1003C00080916B0090916C00019690936C008093EB
:1003D0006B00883E934069F48091710090917200A7
:1003E0000196909372008093710010926C001092AD
:1003F0006B0080916A00823089F128F4882359F0DB
:100400008130D9F00895843009F44BC0C8F18530AB
:1004100009F459C0089580917100909172006AE0CA
:1004200070E00E940704862F61E00E9483038091A0
:100430006A008F5F80936A000895809171009091A7
:1004400072006AE070E00E94070462E00E94830389
:1004500080916A008F5F80936A00089580916F0099
:10046000909170006AE070E00E940704862F63E0BC
:100470000E94830380916A008F5F80936A000895D1
:1004800080916F00909170006AE070E00E94070414
:1004900064E00E94830380916A008F5F80936A000A
:1004A000089580916D0090916E006AE070E00E9466
:1004B0000704862F65E00E94830380916A008F5FA6
:1004C00080936A00089580916D0090916E006AE0BB
:1004D00070E00E94070466E00E94830310926A00A5
:1004E000089581E00E94B80060916D0070916E00E7
:1004F000072E000C880B990B0E947E018AE30E9454
:10050000380160916F0070917000072E000C880B0D
:10051000990B0E947E018AE30E943801609171006C
:1005200070917200072E000C880B990B0E947E01BF
:100530000895CF93DF930E944E00833609F094C054
:1005400081E0809373000E944E0083369105D9F3B9
:100550000E944E00892BE1F30E944E008336C1F1C8
:10056000CBE3D0E08833C1F480916F0090917000AC
:100570008B33910529F41092700010926F0005C022
:1005800001969093700080936F000E9471020E9408
:100590004E00C897E1F318C08533B1F480916F0025
:1005A00090917000009729F4D0937000C0936F0071
:1005B00005C001979093700080936F000E947102B4
:1005C0000E944E00C597E1F30E944E00833651F61B
:1005D0000E944E0083369105D9F30E944E00892B6C
:1005E000E1F30E944E008336C1F1C7E1D0E08833C9
:1005F000C1F480916D0090916E008731910529F4CE
:1006000010926E0010926D0005C0019690936E00DE
:1006100080936D000E9471020E944E00C897E1F322
:1006200018C08533B1F480916D0090916E000097F1
:1006300029F4D0936E00C0936D0005C0019790938C
:100640006E0080936D000E9471020E944E00C5975B
:10065000E1F30E944E00833651F6109273000E941F
:100660004E0083369105D9F3DF91CF9108958CED3B
:1006700091E090937700809376000E947F030E9420
:10068000FE000E94490089EF0E94A50310917100AD
:10069000C1E7D0E00E949902812F90E02091710083
:1006A000309172008217930719F00E94710218812D
:1006B0008091710090917200CC9769F480916F00E5
:1006C0009091700001969093700080936F0010924B
:1006D00072001092710080916F0090917000CC9721
:1006E000C9F680916D0090916E00019690936E0016
:1006F00080936D001092700010926F00CBCF8FEF3F
:1007000084BB81BB08959FEF92BB633081F028F4D6
:10071000613049F0623049F011C0653061F048F055
:10072000663059F00BC0909809C0919807C0929814
:1007300005C0939803C0949801C09598E82FF0E005
:10074000E05AFF4F808185BB089593B7916093BFB6
:1007500093B7926093BF93B7906893BF93B7986035
:1007600093BF8CBF89B7826089BF8FB780688FBF06
:1007700008951F920F920FB60F9211242F933F935B
:100780004F935F936F937F938F939F93AF93BF9399
:10079000EF93FF93E0917400F09175000995FF913C
:1007A000EF91BF91AF919F918F917F916F915F91E9
:1007B0004F913F912F910F900FBE0F901F90189562
:1007C0001F920F920FB60F9211242F933F934F93C6
:1007D0005F936F937F938F939F93AF93BF93EF93A9
:1007E000FF93E0917600F09177000995FF91EF91EA
:1007F000BF91AF919F918F917F916F915F914F9139
:100800003F912F910F900FBE0F901F90189597FB5F
:10081000072E16F4009407D077FD09D00E943D04FE
:1008200007FC05D03EF4909581959F4F08957095F3
:1008300061957F4F0895A1E21A2EAA1BBB1BFD01F3
:100840000DC0AA1FBB1FEE1FFF1FA217B307E407AF
:10085000F50720F0A21BB30BE40BF50B661F771F07
:10086000881F991F1A9469F76095709580959095E7
:100870009B01AC01BD01CF010895AA1BBB1B51E137
:1008800007C0AA1FBB1FA617B70710F0A61BB70B00
:10089000881F991F5A95A9F780959095BC01CD01A5
:0608A0000895F894FFCF5B
:0A08A6003F065B4F666D7D077F6F14
:00000001FF
